{
  "contractName": "ETHCallOption",
  "abi": [
    {
      "constant": true,
      "inputs": [],
      "name": "name",
      "outputs": [
        {
          "name": "",
          "type": "string"
        }
      ],
      "payable": false,
      "stateMutability": "view",
      "type": "function"
    },
    {
      "constant": false,
      "inputs": [
        {
          "name": "spender",
          "type": "address"
        },
        {
          "name": "value",
          "type": "uint256"
        }
      ],
      "name": "approve",
      "outputs": [
        {
          "name": "",
          "type": "bool"
        }
      ],
      "payable": false,
      "stateMutability": "nonpayable",
      "type": "function"
    },
    {
      "constant": true,
      "inputs": [],
      "name": "totalSupply",
      "outputs": [
        {
          "name": "",
          "type": "uint256"
        }
      ],
      "payable": false,
      "stateMutability": "view",
      "type": "function"
    },
    {
      "constant": false,
      "inputs": [
        {
          "name": "sender",
          "type": "address"
        },
        {
          "name": "recipient",
          "type": "address"
        },
        {
          "name": "amount",
          "type": "uint256"
        }
      ],
      "name": "transferFrom",
      "outputs": [
        {
          "name": "",
          "type": "bool"
        }
      ],
      "payable": false,
      "stateMutability": "nonpayable",
      "type": "function"
    },
    {
      "constant": true,
      "inputs": [],
      "name": "decimals",
      "outputs": [
        {
          "name": "",
          "type": "uint8"
        }
      ],
      "payable": false,
      "stateMutability": "view",
      "type": "function"
    },
    {
      "constant": false,
      "inputs": [
        {
          "name": "spender",
          "type": "address"
        },
        {
          "name": "addedValue",
          "type": "uint256"
        }
      ],
      "name": "increaseAllowance",
      "outputs": [
        {
          "name": "",
          "type": "bool"
        }
      ],
      "payable": false,
      "stateMutability": "nonpayable",
      "type": "function"
    },
    {
      "constant": true,
      "inputs": [
        {
          "name": "account",
          "type": "address"
        }
      ],
      "name": "balanceOf",
      "outputs": [
        {
          "name": "",
          "type": "uint256"
        }
      ],
      "payable": false,
      "stateMutability": "view",
      "type": "function"
    },
    {
      "constant": true,
      "inputs": [],
      "name": "symbol",
      "outputs": [
        {
          "name": "",
          "type": "string"
        }
      ],
      "payable": false,
      "stateMutability": "view",
      "type": "function"
    },
    {
      "constant": false,
      "inputs": [
        {
          "name": "spender",
          "type": "address"
        },
        {
          "name": "subtractedValue",
          "type": "uint256"
        }
      ],
      "name": "decreaseAllowance",
      "outputs": [
        {
          "name": "",
          "type": "bool"
        }
      ],
      "payable": false,
      "stateMutability": "nonpayable",
      "type": "function"
    },
    {
      "constant": false,
      "inputs": [
        {
          "name": "recipient",
          "type": "address"
        },
        {
          "name": "amount",
          "type": "uint256"
        }
      ],
      "name": "transfer",
      "outputs": [
        {
          "name": "",
          "type": "bool"
        }
      ],
      "payable": false,
      "stateMutability": "nonpayable",
      "type": "function"
    },
    {
      "constant": true,
      "inputs": [
        {
          "name": "owner",
          "type": "address"
        },
        {
          "name": "spender",
          "type": "address"
        }
      ],
      "name": "allowance",
      "outputs": [
        {
          "name": "",
          "type": "uint256"
        }
      ],
      "payable": false,
      "stateMutability": "view",
      "type": "function"
    },
    {
      "inputs": [
        {
          "name": "expiration_timestamp",
          "type": "uint256"
        },
        {
          "name": "strike",
          "type": "uint256"
        },
        {
          "name": "name",
          "type": "string"
        },
        {
          "name": "symbol",
          "type": "string"
        }
      ],
      "payable": true,
      "stateMutability": "payable",
      "type": "constructor"
    },
    {
      "anonymous": false,
      "inputs": [
        {
          "indexed": true,
          "name": "owner",
          "type": "address"
        },
        {
          "indexed": false,
          "name": "amount",
          "type": "uint256"
        }
      ],
      "name": "OptionExercised",
      "type": "event"
    },
    {
      "anonymous": false,
      "inputs": [
        {
          "indexed": true,
          "name": "writer",
          "type": "address"
        },
        {
          "indexed": false,
          "name": "amount",
          "type": "uint256"
        }
      ],
      "name": "OptionWrote",
      "type": "event"
    },
    {
      "anonymous": false,
      "inputs": [
        {
          "indexed": true,
          "name": "from",
          "type": "address"
        },
        {
          "indexed": true,
          "name": "to",
          "type": "address"
        },
        {
          "indexed": false,
          "name": "value",
          "type": "uint256"
        }
      ],
      "name": "Transfer",
      "type": "event"
    },
    {
      "anonymous": false,
      "inputs": [
        {
          "indexed": true,
          "name": "owner",
          "type": "address"
        },
        {
          "indexed": true,
          "name": "spender",
          "type": "address"
        },
        {
          "indexed": false,
          "name": "value",
          "type": "uint256"
        }
      ],
      "name": "Approval",
      "type": "event"
    },
    {
      "constant": true,
      "inputs": [
        {
          "name": "contributor",
          "type": "address"
        }
      ],
      "name": "contribution",
      "outputs": [
        {
          "name": "",
          "type": "uint256"
        }
      ],
      "payable": false,
      "stateMutability": "view",
      "type": "function"
    },
    {
      "constant": false,
      "inputs": [
        {
          "name": "exercisor",
          "type": "address"
        },
        {
          "name": "amount",
          "type": "uint256"
        }
      ],
      "name": "exerciseOption",
      "outputs": [
        {
          "name": "success",
          "type": "bool"
        }
      ],
      "payable": false,
      "stateMutability": "nonpayable",
      "type": "function"
    },
    {
      "constant": false,
      "inputs": [],
      "name": "writeOption",
      "outputs": [
        {
          "name": "success",
          "type": "bool"
        }
      ],
      "payable": true,
      "stateMutability": "payable",
      "type": "function"
    },
    {
      "constant": false,
      "inputs": [],
      "name": "claimContribution",
      "outputs": [
        {
          "name": "success",
          "type": "bool"
        }
      ],
      "payable": false,
      "stateMutability": "nonpayable",
      "type": "function"
    },
    {
      "constant": false,
      "inputs": [],
      "name": "deleteContract",
      "outputs": [],
      "payable": false,
      "stateMutability": "nonpayable",
      "type": "function"
    }
  ],
  "bytecode": "0x6080604052604051620024a4380380620024a4833981018060405260808110156200002957600080fd5b81019080805190602001909291908051906020019092919080516401000000008111156200005657600080fd5b828101905060208101848111156200006d57600080fd5b81518560018202830111640100000000821117156200008b57600080fd5b50509291906020018051640100000000811115620000a857600080fd5b82810190506020810184811115620000bf57600080fd5b8151856001820283011164010000000082111715620000dd57600080fd5b50509291905050508181601282600390805190602001906200010192919062000151565b5081600490805190602001906200011a92919062000151565b5080600560006101000a81548160ff021916908360ff16021790555050505083600681905550826007819055505050505062000200565b828054600181600116156101000203166002900490600052602060002090601f016020900481019282601f106200019457805160ff1916838001178555620001c5565b82800160010185558215620001c5579182015b82811115620001c4578251825591602001919060010190620001a7565b5b509050620001d49190620001d8565b5090565b620001fd91905b80821115620001f9576000816000905550600101620001df565b5090565b90565b61229480620002106000396000f3fe6080604052600436106100f35760003560e01c80635a58cd4c1161008a578063a457c2d711610059578063a457c2d71461052d578063a9059cbb146105a0578063dd62ed3e14610613578063e2dc431014610698576100f3565b80635a58cd4c146103ae57806367842b82146103c557806370a082311461043857806395d89b411461049d576100f3565b806318160ddd116100c657806318160ddd1461024c57806323b872dd14610277578063313ce5671461030a578063395093511461033b576100f3565b80630114a690146100f857806306fdde0314610127578063095ea7b3146101b757806310a64fc41461022a575b600080fd5b34801561010457600080fd5b5061010d6106fd565b604051808215151515815260200191505060405180910390f35b34801561013357600080fd5b5061013c610bce565b6040518080602001828103825283818151815260200191508051906020019080838360005b8381101561017c578082015181840152602081019050610161565b50505050905090810190601f1680156101a95780820380516001836020036101000a031916815260200191505b509250505060405180910390f35b3480156101c357600080fd5b50610210600480360360408110156101da57600080fd5b81019080803573ffffffffffffffffffffffffffffffffffffffff16906020019092919080359060200190929190505050610c70565b604051808215151515815260200191505060405180910390f35b610232610c87565b604051808215151515815260200191505060405180910390f35b34801561025857600080fd5b50610261610e30565b6040518082815260200191505060405180910390f35b34801561028357600080fd5b506102f06004803603606081101561029a57600080fd5b81019080803573ffffffffffffffffffffffffffffffffffffffff169060200190929190803573ffffffffffffffffffffffffffffffffffffffff16906020019092919080359060200190929190505050610e3a565b604051808215151515815260200191505060405180910390f35b34801561031657600080fd5b5061031f610eeb565b604051808260ff1660ff16815260200191505060405180910390f35b34801561034757600080fd5b506103946004803603604081101561035e57600080fd5b81019080803573ffffffffffffffffffffffffffffffffffffffff16906020019092919080359060200190929190505050610f02565b604051808215151515815260200191505060405180910390f35b3480156103ba57600080fd5b506103c3610fa7565b005b3480156103d157600080fd5b5061041e600480360360408110156103e857600080fd5b81019080803573ffffffffffffffffffffffffffffffffffffffff1690602001909291908035906020019092919050505061113c565b604051808215151515815260200191505060405180910390f35b34801561044457600080fd5b506104876004803603602081101561045b57600080fd5b81019080803573ffffffffffffffffffffffffffffffffffffffff169060200190929190505050611510565b6040518082815260200191505060405180910390f35b3480156104a957600080fd5b506104b2611558565b6040518080602001828103825283818151815260200191508051906020019080838360005b838110156104f25780820151818401526020810190506104d7565b50505050905090810190601f16801561051f5780820380516001836020036101000a031916815260200191505b509250505060405180910390f35b34801561053957600080fd5b506105866004803603604081101561055057600080fd5b81019080803573ffffffffffffffffffffffffffffffffffffffff169060200190929190803590602001909291905050506115fa565b604051808215151515815260200191505060405180910390f35b3480156105ac57600080fd5b506105f9600480360360408110156105c357600080fd5b81019080803573ffffffffffffffffffffffffffffffffffffffff1690602001909291908035906020019092919050505061169f565b604051808215151515815260200191505060405180910390f35b34801561061f57600080fd5b506106826004803603604081101561063657600080fd5b81019080803573ffffffffffffffffffffffffffffffffffffffff169060200190929190803573ffffffffffffffffffffffffffffffffffffffff1690602001909291905050506116b6565b6040518082815260200191505060405180910390f35b3480156106a457600080fd5b506106e7600480360360208110156106bb57600080fd5b81019080803573ffffffffffffffffffffffffffffffffffffffff16906020019092919050505061173d565b6040518082815260200191505060405180910390f35b60006006544211610776576040517f08c379a00000000000000000000000000000000000000000000000000000000081526004018080602001828103825260208152602001807f4f7074696f6e20636f6e747261637420686173206e6f7420657870697265642e81525060200191505060405180910390fd5b6000600860003373ffffffffffffffffffffffffffffffffffffffff1673ffffffffffffffffffffffffffffffffffffffff168152602001908152602001600020541161082b576040517f08c379a00000000000000000000000000000000000000000000000000000000081526004018080602001828103825260158152602001807f4e6f20636f6e747269627574696f6e20666f756e64000000000000000000000081525060200191505060405180910390fd5b60003073ffffffffffffffffffffffffffffffffffffffff16319050600061089b600860003373ffffffffffffffffffffffffffffffffffffffff1673ffffffffffffffffffffffffffffffffffffffff168152602001908152602001600020548361178690919063ffffffff16565b905060006108b46009548361180c90919063ffffffff16565b905060007389d24a6b4ccb1b6faa2625fe562bdd9a2326035973ffffffffffffffffffffffffffffffffffffffff166370a08231306040518263ffffffff1660e01b8152600401808273ffffffffffffffffffffffffffffffffffffffff1673ffffffffffffffffffffffffffffffffffffffff16815260200191505060206040518083038186803b15801561094957600080fd5b505afa15801561095d573d6000803e3d6000fd5b505050506040513d602081101561097357600080fd5b8101908080519060200190929190505050905060006109da600860003373ffffffffffffffffffffffffffffffffffffffff1673ffffffffffffffffffffffffffffffffffffffff168152602001908152602001600020548361178690919063ffffffff16565b905060006109f36009548361180c90919063ffffffff16565b9050610a49600860003373ffffffffffffffffffffffffffffffffffffffff1673ffffffffffffffffffffffffffffffffffffffff1681526020019081526020016000205460095461189b90919063ffffffff16565b506000600860003373ffffffffffffffffffffffffffffffffffffffff1673ffffffffffffffffffffffffffffffffffffffff168152602001908152602001600020819055506000811115610b70577389d24a6b4ccb1b6faa2625fe562bdd9a2326035973ffffffffffffffffffffffffffffffffffffffff1663a9059cbb33836040518363ffffffff1660e01b8152600401808373ffffffffffffffffffffffffffffffffffffffff1673ffffffffffffffffffffffffffffffffffffffff16815260200182815260200192505050602060405180830381600087803b158015610b3357600080fd5b505af1158015610b47573d6000803e3d6000fd5b505050506040513d6020811015610b5d57600080fd5b8101908080519060200190929190505050505b6000841115610bc1573373ffffffffffffffffffffffffffffffffffffffff166108fc859081150290604051600060405180830381858888f19350505050158015610bbf573d6000803e3d6000fd5b505b6001965050505050505090565b606060038054600181600116156101000203166002900480601f016020809104026020016040519081016040528092919081815260200182805460018160011615610100020316600290048015610c665780601f10610c3b57610100808354040283529160200191610c66565b820191906000526020600020905b815481529060010190602001808311610c4957829003601f168201915b5050505050905090565b6000610c7d338484611924565b6001905092915050565b6000600654421115610d01576040517f08c379a000000000000000000000000000000000000000000000000000000000815260040180806020018281038252601c8152602001807f4f7074696f6e20636f6e74726163742068617320657870697265642e0000000081525060200191505060405180910390fd5b60003411610d77576040517f08c379a000000000000000000000000000000000000000000000000000000000815260040180806020018281038252601d8152602001807f4d7573742073656e642065746820746f207772697465206f7074696f6e00000081525060200191505060405180910390fd5b34600860003373ffffffffffffffffffffffffffffffffffffffff1673ffffffffffffffffffffffffffffffffffffffff16815260200190815260200160002081905550610dd034600954611b1b90919063ffffffff16565b50610ddb3334611ba3565b3373ffffffffffffffffffffffffffffffffffffffff167fecfcecf9c6cf434c1f909baa2a7d4ed561b2612dc9520fcc0e17934e13430557346040518082815260200191505060405180910390a26001905090565b6000600254905090565b6000610e47848484611d5e565b610ee08433610edb85600160008a73ffffffffffffffffffffffffffffffffffffffff1673ffffffffffffffffffffffffffffffffffffffff16815260200190815260200160002060003373ffffffffffffffffffffffffffffffffffffffff1673ffffffffffffffffffffffffffffffffffffffff1681526020019081526020016000205461189b90919063ffffffff16565b611924565b600190509392505050565b6000600560009054906101000a900460ff16905090565b6000610f9d3384610f9885600160003373ffffffffffffffffffffffffffffffffffffffff1673ffffffffffffffffffffffffffffffffffffffff16815260200190815260200160002060008973ffffffffffffffffffffffffffffffffffffffff1673ffffffffffffffffffffffffffffffffffffffff16815260200190815260200160002054611b1b90919063ffffffff16565b611924565b6001905092915050565b600654421161101e576040517f08c379a00000000000000000000000000000000000000000000000000000000081526004018080602001828103825260208152602001807f4f7074696f6e20636f6e747261637420686173206e6f7420657870697265642e81525060200191505060405180910390fd5b60003073ffffffffffffffffffffffffffffffffffffffff1631905060007389d24a6b4ccb1b6faa2625fe562bdd9a2326035973ffffffffffffffffffffffffffffffffffffffff166370a08231306040518263ffffffff1660e01b8152600401808273ffffffffffffffffffffffffffffffffffffffff1673ffffffffffffffffffffffffffffffffffffffff16815260200191505060206040518083038186803b1580156110cd57600080fd5b505afa1580156110e1573d6000803e3d6000fd5b505050506040513d60208110156110f757600080fd5b8101908080519060200190929190505050905060008214801561111a5750600081145b15611138573373ffffffffffffffffffffffffffffffffffffffff16ff5b5050565b60006006544211156111b6576040517f08c379a000000000000000000000000000000000000000000000000000000000815260040180806020018281038252601c8152602001807f4f7074696f6e20636f6e74726163742068617320657870697265642e0000000081525060200191505060405180910390fd5b3373ffffffffffffffffffffffffffffffffffffffff168373ffffffffffffffffffffffffffffffffffffffff161461126957816111f484336116b6565b1015611268576040517f08c379a00000000000000000000000000000000000000000000000000000000081526004018080602001828103825260158152602001807f556e617574686f72697a6564206578657263697365000000000000000000000081525060200191505060405180910390fd5b5b8161127384611510565b10156112e7576040517f08c379a000000000000000000000000000000000000000000000000000000000815260040180806020018281038252601e8152602001807f4e6f7420656e6f756768206f7074696f6e20746f6b656e73206f776e6564000081525060200191505060405180910390fd5b6112f18383611ffa565b7389d24a6b4ccb1b6faa2625fe562bdd9a2326035973ffffffffffffffffffffffffffffffffffffffff166323b872dd843060075486026040518463ffffffff1660e01b8152600401808473ffffffffffffffffffffffffffffffffffffffff1673ffffffffffffffffffffffffffffffffffffffff1681526020018373ffffffffffffffffffffffffffffffffffffffff1673ffffffffffffffffffffffffffffffffffffffff1681526020018281526020019350505050602060405180830381600087803b1580156113c457600080fd5b505af11580156113d8573d6000803e3d6000fd5b505050506040513d60208110156113ee57600080fd5b8101908080519060200190929190505050611471576040517f08c379a00000000000000000000000000000000000000000000000000000000081526004018080602001828103825260198152602001807f444149207472616e7366657220756e7375636365737366756c0000000000000081525060200191505060405180910390fd5b8273ffffffffffffffffffffffffffffffffffffffff166108fc839081150290604051600060405180830381858888f193505050501580156114b7573d6000803e3d6000fd5b508273ffffffffffffffffffffffffffffffffffffffff167f8ddc97895f60c450c0b09eaeadbc42f8973b77f9540fe465b91939670ee4807b836040518082815260200191505060405180910390a26001905092915050565b60008060008373ffffffffffffffffffffffffffffffffffffffff1673ffffffffffffffffffffffffffffffffffffffff168152602001908152602001600020549050919050565b606060048054600181600116156101000203166002900480601f0160208091040260200160405190810160405280929190818152602001828054600181600116156101000203166002900480156115f05780601f106115c5576101008083540402835291602001916115f0565b820191906000526020600020905b8154815290600101906020018083116115d357829003601f168201915b5050505050905090565b6000611695338461169085600160003373ffffffffffffffffffffffffffffffffffffffff1673ffffffffffffffffffffffffffffffffffffffff16815260200190815260200160002060008973ffffffffffffffffffffffffffffffffffffffff1673ffffffffffffffffffffffffffffffffffffffff1681526020019081526020016000205461189b90919063ffffffff16565b611924565b6001905092915050565b60006116ac338484611d5e565b6001905092915050565b6000600160008473ffffffffffffffffffffffffffffffffffffffff1673ffffffffffffffffffffffffffffffffffffffff16815260200190815260200160002060008373ffffffffffffffffffffffffffffffffffffffff1673ffffffffffffffffffffffffffffffffffffffff16815260200190815260200160002054905092915050565b6000600860008373ffffffffffffffffffffffffffffffffffffffff1673ffffffffffffffffffffffffffffffffffffffff168152602001908152602001600020549050919050565b6000808314156117995760009050611806565b60008284029050828482816117aa57fe5b0414611801576040517f08c379a00000000000000000000000000000000000000000000000000000000081526004018080602001828103825260218152602001806121de6021913960400191505060405180910390fd5b809150505b92915050565b6000808211611883576040517f08c379a000000000000000000000000000000000000000000000000000000000815260040180806020018281038252601a8152602001807f536166654d6174683a206469766973696f6e206279207a65726f00000000000081525060200191505060405180910390fd5b600082848161188e57fe5b0490508091505092915050565b600082821115611913576040517f08c379a000000000000000000000000000000000000000000000000000000000815260040180806020018281038252601e8152602001807f536166654d6174683a207375627472616374696f6e206f766572666c6f77000081525060200191505060405180910390fd5b600082840390508091505092915050565b600073ffffffffffffffffffffffffffffffffffffffff168373ffffffffffffffffffffffffffffffffffffffff1614156119aa576040517f08c379a00000000000000000000000000000000000000000000000000000000081526004018080602001828103825260248152602001806122456024913960400191505060405180910390fd5b600073ffffffffffffffffffffffffffffffffffffffff168273ffffffffffffffffffffffffffffffffffffffff161415611a30576040517f08c379a00000000000000000000000000000000000000000000000000000000081526004018080602001828103825260228152602001806121bc6022913960400191505060405180910390fd5b80600160008573ffffffffffffffffffffffffffffffffffffffff1673ffffffffffffffffffffffffffffffffffffffff16815260200190815260200160002060008473ffffffffffffffffffffffffffffffffffffffff1673ffffffffffffffffffffffffffffffffffffffff168152602001908152602001600020819055508173ffffffffffffffffffffffffffffffffffffffff168373ffffffffffffffffffffffffffffffffffffffff167f8c5be1e5ebec7d5bd14f71427d1e84f3dd0314c0f7b2291e5b200ac8c7c3b925836040518082815260200191505060405180910390a3505050565b600080828401905083811015611b99576040517f08c379a000000000000000000000000000000000000000000000000000000000815260040180806020018281038252601b8152602001807f536166654d6174683a206164646974696f6e206f766572666c6f77000000000081525060200191505060405180910390fd5b8091505092915050565b600073ffffffffffffffffffffffffffffffffffffffff168273ffffffffffffffffffffffffffffffffffffffff161415611c46576040517f08c379a000000000000000000000000000000000000000000000000000000000815260040180806020018281038252601f8152602001807f45524332303a206d696e7420746f20746865207a65726f20616464726573730081525060200191505060405180910390fd5b611c5b81600254611b1b90919063ffffffff16565b600281905550611cb2816000808573ffffffffffffffffffffffffffffffffffffffff1673ffffffffffffffffffffffffffffffffffffffff16815260200190815260200160002054611b1b90919063ffffffff16565b6000808473ffffffffffffffffffffffffffffffffffffffff1673ffffffffffffffffffffffffffffffffffffffff168152602001908152602001600020819055508173ffffffffffffffffffffffffffffffffffffffff16600073ffffffffffffffffffffffffffffffffffffffff167fddf252ad1be2c89b69c2b068fc378daa952ba7f163c4a11628f55a4df523b3ef836040518082815260200191505060405180910390a35050565b600073ffffffffffffffffffffffffffffffffffffffff168373ffffffffffffffffffffffffffffffffffffffff161415611de4576040517f08c379a00000000000000000000000000000000000000000000000000000000081526004018080602001828103825260258152602001806122206025913960400191505060405180910390fd5b600073ffffffffffffffffffffffffffffffffffffffff168273ffffffffffffffffffffffffffffffffffffffff161415611e6a576040517f08c379a00000000000000000000000000000000000000000000000000000000081526004018080602001828103825260238152602001806121996023913960400191505060405180910390fd5b611ebb816000808673ffffffffffffffffffffffffffffffffffffffff1673ffffffffffffffffffffffffffffffffffffffff1681526020019081526020016000205461189b90919063ffffffff16565b6000808573ffffffffffffffffffffffffffffffffffffffff1673ffffffffffffffffffffffffffffffffffffffff16815260200190815260200160002081905550611f4e816000808573ffffffffffffffffffffffffffffffffffffffff1673ffffffffffffffffffffffffffffffffffffffff16815260200190815260200160002054611b1b90919063ffffffff16565b6000808473ffffffffffffffffffffffffffffffffffffffff1673ffffffffffffffffffffffffffffffffffffffff168152602001908152602001600020819055508173ffffffffffffffffffffffffffffffffffffffff168373ffffffffffffffffffffffffffffffffffffffff167fddf252ad1be2c89b69c2b068fc378daa952ba7f163c4a11628f55a4df523b3ef836040518082815260200191505060405180910390a3505050565b600073ffffffffffffffffffffffffffffffffffffffff168273ffffffffffffffffffffffffffffffffffffffff161415612080576040517f08c379a00000000000000000000000000000000000000000000000000000000081526004018080602001828103825260218152602001806121ff6021913960400191505060405180910390fd5b6120958160025461189b90919063ffffffff16565b6002819055506120ec816000808573ffffffffffffffffffffffffffffffffffffffff1673ffffffffffffffffffffffffffffffffffffffff1681526020019081526020016000205461189b90919063ffffffff16565b6000808473ffffffffffffffffffffffffffffffffffffffff1673ffffffffffffffffffffffffffffffffffffffff16815260200190815260200160002081905550600073ffffffffffffffffffffffffffffffffffffffff168273ffffffffffffffffffffffffffffffffffffffff167fddf252ad1be2c89b69c2b068fc378daa952ba7f163c4a11628f55a4df523b3ef836040518082815260200191505060405180910390a3505056fe45524332303a207472616e7366657220746f20746865207a65726f206164647265737345524332303a20617070726f766520746f20746865207a65726f2061646472657373536166654d6174683a206d756c7469706c69636174696f6e206f766572666c6f7745524332303a206275726e2066726f6d20746865207a65726f206164647265737345524332303a207472616e736665722066726f6d20746865207a65726f206164647265737345524332303a20617070726f76652066726f6d20746865207a65726f2061646472657373a165627a7a72305820ff9842c60657648ed3801f44c42a11f8fc38606a2a9f75091b25b06fa97faf3e0029",
  "source": "pragma solidity ^0.5.0;\n\nimport \"../node_modules/openzeppelin-solidity/contracts/token/ERC20/ERC20.sol\";\nimport \"../node_modules/openzeppelin-solidity/contracts/token/ERC20/ERC20Detailed.sol\";\nimport \"../node_modules/openzeppelin-solidity/contracts/math/SafeMath.sol\";\n\ncontract ETHCallOption is ERC20, ERC20Detailed {\n    using SafeMath for uint256;\n    \n    uint256 private _expiration_timestamp;\n    uint256 private _strike;\n    \n    mapping(address => uint) private _contributions;\n    uint256 private _total_contribution;\n    \n    ERC20 constant private DAI_CONTRACT = ERC20(0x89d24A6b4CcB1B6fAA2625fE562bDD9a23260359);\n    \n    event OptionExercised(address indexed owner, uint256 amount);\n    event OptionWrote(address indexed writer, uint256 amount);\n\n    constructor(uint256 expiration_timestamp, uint256 strike, string memory name, string memory symbol)\n        ERC20Detailed(name, symbol, 18)\n        public\n        payable\n    {\n        _expiration_timestamp = expiration_timestamp;\n        _strike = strike;\n    }\n    \n    function contribution(address contributor) public view returns (uint256) {\n        return _contributions[contributor];\n    }\n    \n    modifier beforeExpiration() {\n        require(block.timestamp <= _expiration_timestamp, \"Option contract has expired.\");\n        _;\n    }\n\n    function exerciseOption(address payable exercisor, uint256 amount) public beforeExpiration returns (bool success) {\n        if(exercisor != msg.sender){\n            require(allowance(exercisor, msg.sender) >= amount, \"Unauthorized exercise\");\n        }\n        require(balanceOf(exercisor) >= amount, \"Not enough option tokens owned\");\n        _burn(exercisor, amount);\n        require(DAI_CONTRACT.transferFrom(exercisor, address(this), amount * _strike), \"DAI transfer unsuccessful\");\n        exercisor.transfer(amount);\n        emit OptionExercised(exercisor, amount);\n        return true;\n    }\n    \n    function writeOption() public payable beforeExpiration returns (bool success) {\n        require(msg.value > 0, \"Must send eth to write option\");\n        _contributions[msg.sender] = msg.value;\n        _total_contribution.add(msg.value);\n        _mint(msg.sender, msg.value);\n        emit OptionWrote(msg.sender, msg.value);\n        \n        return true;\n    }\n    \n    modifier afterExpiration() {\n        require(block.timestamp > _expiration_timestamp, \"Option contract has not expired.\");\n        _;\n    }\n    \n    function claimContribution() public afterExpiration returns (bool success) {\n\n        require(_contributions[msg.sender] > 0, \"No contribution found\");\n        \n        uint256 total_balance_wei = address(this).balance;\n        uint256 claimer_proportion_wei_num = total_balance_wei.mul(_contributions[msg.sender]);\n        uint256 claimer_proportion_wei = claimer_proportion_wei_num.div(_total_contribution);\n\n        uint256 total_balance_dai = DAI_CONTRACT.balanceOf(address(this));\n        uint256 claimer_proportion_dai_num = total_balance_dai.mul(_contributions[msg.sender]);\n        uint256 claimer_proportion_dai = claimer_proportion_dai_num.div(_total_contribution);\n\n        _total_contribution.sub(_contributions[msg.sender]);\n        _contributions[msg.sender] = 0;\n\n        if(claimer_proportion_dai > 0){\n            DAI_CONTRACT.transfer(msg.sender, claimer_proportion_dai);\n        }\n        \n        if(claimer_proportion_wei > 0){\n            msg.sender.transfer(claimer_proportion_wei);\n        }\n        \n        return true;\n    }\n    \n    function deleteContract() public afterExpiration {\n\n        uint256 total_balance_eth = address(this).balance;\n        uint256 total_balance_dai = DAI_CONTRACT.balanceOf(address(this));\n        \n        if(total_balance_eth == 0 && total_balance_dai == 0){\n            selfdestruct(msg.sender);\n        }\n    }\n\n}\n",
  "sourcePath": "/Users/square1/Desktop/eth_options/contracts/ETHCallOption.sol",
  "compiler": {
    "name": "solc",
    "version": "0.5.8+commit.23d335f2.Emscripten.clang"
  },
  "schemaVersion": "3.0.11",
  "updatedAt": "2019-07-08T17:30:31.907Z",
  "devdoc": {
    "methods": {
      "allowance(address,address)": {
        "details": "See `IERC20.allowance`."
      },
      "approve(address,uint256)": {
        "details": "See `IERC20.approve`.     * Requirements:     * - `spender` cannot be the zero address."
      },
      "balanceOf(address)": {
        "details": "See `IERC20.balanceOf`."
      },
      "decimals()": {
        "details": "Returns the number of decimals used to get its user representation. For example, if `decimals` equals `2`, a balance of `505` tokens should be displayed to a user as `5,05` (`505 / 10 ** 2`).     * Tokens usually opt for a value of 18, imitating the relationship between Ether and Wei.     * > Note that this information is only used for _display_ purposes: it in no way affects any of the arithmetic of the contract, including `IERC20.balanceOf` and `IERC20.transfer`."
      },
      "decreaseAllowance(address,uint256)": {
        "details": "Atomically decreases the allowance granted to `spender` by the caller.     * This is an alternative to `approve` that can be used as a mitigation for problems described in `IERC20.approve`.     * Emits an `Approval` event indicating the updated allowance.     * Requirements:     * - `spender` cannot be the zero address. - `spender` must have allowance for the caller of at least `subtractedValue`."
      },
      "increaseAllowance(address,uint256)": {
        "details": "Atomically increases the allowance granted to `spender` by the caller.     * This is an alternative to `approve` that can be used as a mitigation for problems described in `IERC20.approve`.     * Emits an `Approval` event indicating the updated allowance.     * Requirements:     * - `spender` cannot be the zero address."
      },
      "name()": {
        "details": "Returns the name of the token."
      },
      "symbol()": {
        "details": "Returns the symbol of the token, usually a shorter version of the name."
      },
      "totalSupply()": {
        "details": "See `IERC20.totalSupply`."
      },
      "transfer(address,uint256)": {
        "details": "See `IERC20.transfer`.     * Requirements:     * - `recipient` cannot be the zero address. - the caller must have a balance of at least `amount`."
      },
      "transferFrom(address,address,uint256)": {
        "details": "See `IERC20.transferFrom`.     * Emits an `Approval` event indicating the updated allowance. This is not required by the EIP. See the note at the beginning of `ERC20`;     * Requirements: - `sender` and `recipient` cannot be the zero address. - `sender` must have a balance of at least `value`. - the caller must have allowance for `sender`'s tokens of at least `amount`."
      }
    }
  },
  "userdoc": {
    "methods": {}
  }
}