{
  "contractName": "ETHOptionsFactory",
  "abi": [
    {
      "anonymous": false,
      "inputs": [
        {
          "indexed": true,
          "name": "contract_address",
          "type": "address"
        },
        {
          "indexed": false,
          "name": "expiration_timestamp",
          "type": "uint256"
        },
        {
          "indexed": false,
          "name": "strike",
          "type": "uint256"
        }
      ],
      "name": "CallOptionContractCreated",
      "type": "event"
    },
    {
      "anonymous": false,
      "inputs": [
        {
          "indexed": true,
          "name": "contract_address",
          "type": "address"
        },
        {
          "indexed": false,
          "name": "expiration_timestamp",
          "type": "uint256"
        },
        {
          "indexed": false,
          "name": "strike",
          "type": "uint256"
        }
      ],
      "name": "PutOptionContractCreated",
      "type": "event"
    },
    {
      "constant": true,
      "inputs": [
        {
          "name": "expiration_timestamp",
          "type": "uint256"
        },
        {
          "name": "strike",
          "type": "uint256"
        }
      ],
      "name": "callOptionContract",
      "outputs": [
        {
          "name": "",
          "type": "address"
        }
      ],
      "payable": false,
      "stateMutability": "view",
      "type": "function"
    },
    {
      "constant": true,
      "inputs": [
        {
          "name": "expiration_timestamp",
          "type": "uint256"
        },
        {
          "name": "strike",
          "type": "uint256"
        }
      ],
      "name": "putOptionContract",
      "outputs": [
        {
          "name": "",
          "type": "address"
        }
      ],
      "payable": false,
      "stateMutability": "view",
      "type": "function"
    },
    {
      "constant": false,
      "inputs": [
        {
          "name": "expiration_timestamp",
          "type": "uint256"
        },
        {
          "name": "strike",
          "type": "uint256"
        }
      ],
      "name": "createCallOptionContract",
      "outputs": [
        {
          "name": "success",
          "type": "bool"
        }
      ],
      "payable": false,
      "stateMutability": "nonpayable",
      "type": "function"
    },
    {
      "constant": false,
      "inputs": [
        {
          "name": "expiration_timestamp",
          "type": "uint256"
        },
        {
          "name": "strike",
          "type": "uint256"
        }
      ],
      "name": "createPutOptionContract",
      "outputs": [
        {
          "name": "success",
          "type": "bool"
        }
      ],
      "payable": false,
      "stateMutability": "nonpayable",
      "type": "function"
    }
  ],
  "bytecode": "0x608060405234801561001057600080fd5b506153ca806100206000396000f3fe608060405234801561001057600080fd5b506004361061004c5760003560e01c80633c85a053146100515780639b07cec7146100c9578063eb9b484114610119578063f78dbe0814610191575b600080fd5b6100876004803603604081101561006757600080fd5b8101908080359060200190929190803590602001909291905050506101e1565b604051808273ffffffffffffffffffffffffffffffffffffffff1673ffffffffffffffffffffffffffffffffffffffff16815260200191505060405180910390f35b6100ff600480360360408110156100df57600080fd5b81019080803590602001909291908035906020019092919050505061022f565b604051808215151515815260200191505060405180910390f35b61014f6004803603604081101561012f57600080fd5b810190808035906020019092919080359060200190929190505050610507565b604051808273ffffffffffffffffffffffffffffffffffffffff1673ffffffffffffffffffffffffffffffffffffffff16815260200191505060405180910390f35b6101c7600480360360408110156101a757600080fd5b810190808035906020019092919080359060200190929190505050610556565b604051808215151515815260200191505060405180910390f35b6000806000848152602001908152602001600020600083815260200190815260200160002060009054906101000a900473ffffffffffffffffffffffffffffffffffffffff16905092915050565b6000428310156102a7576040517f08c379a00000000000000000000000000000000000000000000000000000000081526004018080602001828103825260138152602001807f496e76616c69642065787069726174696f6e2e0000000000000000000000000081525060200191505060405180910390fd5b600073ffffffffffffffffffffffffffffffffffffffff16600080858152602001908152602001600020600084815260200190815260200160002060009054906101000a900473ffffffffffffffffffffffffffffffffffffffff1673ffffffffffffffffffffffffffffffffffffffff161461038c576040517f08c379a00000000000000000000000000000000000000000000000000000000081526004018080602001828103825260198152602001807f436f6e747261637420616c726561647920637265617465642e0000000000000081525060200191505060405180910390fd5b6000838360405161039c90610830565b808381526020018281526020018060200180602001838103835260118152602001807f4554482043616c6c20436f6e7472616374000000000000000000000000000000815250602001838103825260078152602001807f45544843616c6c00000000000000000000000000000000000000000000000000815250602001945050505050604051809103906000f08015801561043b573d6000803e3d6000fd5b509050600081905080600080878152602001908152602001600020600086815260200190815260200160002060006101000a81548173ffffffffffffffffffffffffffffffffffffffff021916908373ffffffffffffffffffffffffffffffffffffffff1602179055508073ffffffffffffffffffffffffffffffffffffffff167fdb923d4fc325c63616207b6fd276f78862c2e6f40c8b74a0ec2b6601f94b4bcb8686604051808381526020018281526020019250505060405180910390a260019250505092915050565b600060016000848152602001908152602001600020600083815260200190815260200160002060009054906101000a900473ffffffffffffffffffffffffffffffffffffffff16905092915050565b6000428310156105ce576040517f08c379a00000000000000000000000000000000000000000000000000000000081526004018080602001828103825260138152602001807f496e76616c69642065787069726174696f6e2e0000000000000000000000000081525060200191505060405180910390fd5b600073ffffffffffffffffffffffffffffffffffffffff1660016000858152602001908152602001600020600084815260200190815260200160002060009054906101000a900473ffffffffffffffffffffffffffffffffffffffff1673ffffffffffffffffffffffffffffffffffffffff16146106b4576040517f08c379a00000000000000000000000000000000000000000000000000000000081526004018080602001828103825260198152602001807f436f6e747261637420616c726561647920637265617465642e0000000000000081525060200191505060405180910390fd5b600083836040516106c49061083d565b808381526020018281526020018060200180602001838103835260108152602001807f4554482050757420436f6e747261637400000000000000000000000000000000815250602001838103825260068152602001807f4554485075740000000000000000000000000000000000000000000000000000815250602001945050505050604051809103906000f080158015610763573d6000803e3d6000fd5b50905060008190508060016000878152602001908152602001600020600086815260200190815260200160002060006101000a81548173ffffffffffffffffffffffffffffffffffffffff021916908373ffffffffffffffffffffffffffffffffffffffff1602179055508073ffffffffffffffffffffffffffffffffffffffff167f8945e1366e40752d8564cc339ebbb08e5294bd9bb89328012cb8b5734404b5898686604051808381526020018281526020019250505060405180910390a260019250505092915050565b6124a48061084b83390190565b6126b080612cef8339019056fe6080604052604051620024a4380380620024a4833981018060405260808110156200002957600080fd5b81019080805190602001909291908051906020019092919080516401000000008111156200005657600080fd5b828101905060208101848111156200006d57600080fd5b81518560018202830111640100000000821117156200008b57600080fd5b50509291906020018051640100000000811115620000a857600080fd5b82810190506020810184811115620000bf57600080fd5b8151856001820283011164010000000082111715620000dd57600080fd5b50509291905050508181601282600390805190602001906200010192919062000151565b5081600490805190602001906200011a92919062000151565b5080600560006101000a81548160ff021916908360ff16021790555050505083600681905550826007819055505050505062000200565b828054600181600116156101000203166002900490600052602060002090601f016020900481019282601f106200019457805160ff1916838001178555620001c5565b82800160010185558215620001c5579182015b82811115620001c4578251825591602001919060010190620001a7565b5b509050620001d49190620001d8565b5090565b620001fd91905b80821115620001f9576000816000905550600101620001df565b5090565b90565b61229480620002106000396000f3fe6080604052600436106100f35760003560e01c80635a58cd4c1161008a578063a457c2d711610059578063a457c2d71461052d578063a9059cbb146105a0578063dd62ed3e14610613578063e2dc431014610698576100f3565b80635a58cd4c146103ae57806367842b82146103c557806370a082311461043857806395d89b411461049d576100f3565b806318160ddd116100c657806318160ddd1461024c57806323b872dd14610277578063313ce5671461030a578063395093511461033b576100f3565b80630114a690146100f857806306fdde0314610127578063095ea7b3146101b757806310a64fc41461022a575b600080fd5b34801561010457600080fd5b5061010d6106fd565b604051808215151515815260200191505060405180910390f35b34801561013357600080fd5b5061013c610bce565b6040518080602001828103825283818151815260200191508051906020019080838360005b8381101561017c578082015181840152602081019050610161565b50505050905090810190601f1680156101a95780820380516001836020036101000a031916815260200191505b509250505060405180910390f35b3480156101c357600080fd5b50610210600480360360408110156101da57600080fd5b81019080803573ffffffffffffffffffffffffffffffffffffffff16906020019092919080359060200190929190505050610c70565b604051808215151515815260200191505060405180910390f35b610232610c87565b604051808215151515815260200191505060405180910390f35b34801561025857600080fd5b50610261610e30565b6040518082815260200191505060405180910390f35b34801561028357600080fd5b506102f06004803603606081101561029a57600080fd5b81019080803573ffffffffffffffffffffffffffffffffffffffff169060200190929190803573ffffffffffffffffffffffffffffffffffffffff16906020019092919080359060200190929190505050610e3a565b604051808215151515815260200191505060405180910390f35b34801561031657600080fd5b5061031f610eeb565b604051808260ff1660ff16815260200191505060405180910390f35b34801561034757600080fd5b506103946004803603604081101561035e57600080fd5b81019080803573ffffffffffffffffffffffffffffffffffffffff16906020019092919080359060200190929190505050610f02565b604051808215151515815260200191505060405180910390f35b3480156103ba57600080fd5b506103c3610fa7565b005b3480156103d157600080fd5b5061041e600480360360408110156103e857600080fd5b81019080803573ffffffffffffffffffffffffffffffffffffffff1690602001909291908035906020019092919050505061113c565b604051808215151515815260200191505060405180910390f35b34801561044457600080fd5b506104876004803603602081101561045b57600080fd5b81019080803573ffffffffffffffffffffffffffffffffffffffff169060200190929190505050611510565b6040518082815260200191505060405180910390f35b3480156104a957600080fd5b506104b2611558565b6040518080602001828103825283818151815260200191508051906020019080838360005b838110156104f25780820151818401526020810190506104d7565b50505050905090810190601f16801561051f5780820380516001836020036101000a031916815260200191505b509250505060405180910390f35b34801561053957600080fd5b506105866004803603604081101561055057600080fd5b81019080803573ffffffffffffffffffffffffffffffffffffffff169060200190929190803590602001909291905050506115fa565b604051808215151515815260200191505060405180910390f35b3480156105ac57600080fd5b506105f9600480360360408110156105c357600080fd5b81019080803573ffffffffffffffffffffffffffffffffffffffff1690602001909291908035906020019092919050505061169f565b604051808215151515815260200191505060405180910390f35b34801561061f57600080fd5b506106826004803603604081101561063657600080fd5b81019080803573ffffffffffffffffffffffffffffffffffffffff169060200190929190803573ffffffffffffffffffffffffffffffffffffffff1690602001909291905050506116b6565b6040518082815260200191505060405180910390f35b3480156106a457600080fd5b506106e7600480360360208110156106bb57600080fd5b81019080803573ffffffffffffffffffffffffffffffffffffffff16906020019092919050505061173d565b6040518082815260200191505060405180910390f35b60006006544211610776576040517f08c379a00000000000000000000000000000000000000000000000000000000081526004018080602001828103825260208152602001807f4f7074696f6e20636f6e747261637420686173206e6f7420657870697265642e81525060200191505060405180910390fd5b6000600860003373ffffffffffffffffffffffffffffffffffffffff1673ffffffffffffffffffffffffffffffffffffffff168152602001908152602001600020541161082b576040517f08c379a00000000000000000000000000000000000000000000000000000000081526004018080602001828103825260158152602001807f4e6f20636f6e747269627574696f6e20666f756e64000000000000000000000081525060200191505060405180910390fd5b60003073ffffffffffffffffffffffffffffffffffffffff16319050600061089b600860003373ffffffffffffffffffffffffffffffffffffffff1673ffffffffffffffffffffffffffffffffffffffff168152602001908152602001600020548361178690919063ffffffff16565b905060006108b46009548361180c90919063ffffffff16565b905060007389d24a6b4ccb1b6faa2625fe562bdd9a2326035973ffffffffffffffffffffffffffffffffffffffff166370a08231306040518263ffffffff1660e01b8152600401808273ffffffffffffffffffffffffffffffffffffffff1673ffffffffffffffffffffffffffffffffffffffff16815260200191505060206040518083038186803b15801561094957600080fd5b505afa15801561095d573d6000803e3d6000fd5b505050506040513d602081101561097357600080fd5b8101908080519060200190929190505050905060006109da600860003373ffffffffffffffffffffffffffffffffffffffff1673ffffffffffffffffffffffffffffffffffffffff168152602001908152602001600020548361178690919063ffffffff16565b905060006109f36009548361180c90919063ffffffff16565b9050610a49600860003373ffffffffffffffffffffffffffffffffffffffff1673ffffffffffffffffffffffffffffffffffffffff1681526020019081526020016000205460095461189b90919063ffffffff16565b506000600860003373ffffffffffffffffffffffffffffffffffffffff1673ffffffffffffffffffffffffffffffffffffffff168152602001908152602001600020819055506000811115610b70577389d24a6b4ccb1b6faa2625fe562bdd9a2326035973ffffffffffffffffffffffffffffffffffffffff1663a9059cbb33836040518363ffffffff1660e01b8152600401808373ffffffffffffffffffffffffffffffffffffffff1673ffffffffffffffffffffffffffffffffffffffff16815260200182815260200192505050602060405180830381600087803b158015610b3357600080fd5b505af1158015610b47573d6000803e3d6000fd5b505050506040513d6020811015610b5d57600080fd5b8101908080519060200190929190505050505b6000841115610bc1573373ffffffffffffffffffffffffffffffffffffffff166108fc859081150290604051600060405180830381858888f19350505050158015610bbf573d6000803e3d6000fd5b505b6001965050505050505090565b606060038054600181600116156101000203166002900480601f016020809104026020016040519081016040528092919081815260200182805460018160011615610100020316600290048015610c665780601f10610c3b57610100808354040283529160200191610c66565b820191906000526020600020905b815481529060010190602001808311610c4957829003601f168201915b5050505050905090565b6000610c7d338484611924565b6001905092915050565b6000600654421115610d01576040517f08c379a000000000000000000000000000000000000000000000000000000000815260040180806020018281038252601c8152602001807f4f7074696f6e20636f6e74726163742068617320657870697265642e0000000081525060200191505060405180910390fd5b60003411610d77576040517f08c379a000000000000000000000000000000000000000000000000000000000815260040180806020018281038252601d8152602001807f4d7573742073656e642065746820746f207772697465206f7074696f6e00000081525060200191505060405180910390fd5b34600860003373ffffffffffffffffffffffffffffffffffffffff1673ffffffffffffffffffffffffffffffffffffffff16815260200190815260200160002081905550610dd034600954611b1b90919063ffffffff16565b50610ddb3334611ba3565b3373ffffffffffffffffffffffffffffffffffffffff167fecfcecf9c6cf434c1f909baa2a7d4ed561b2612dc9520fcc0e17934e13430557346040518082815260200191505060405180910390a26001905090565b6000600254905090565b6000610e47848484611d5e565b610ee08433610edb85600160008a73ffffffffffffffffffffffffffffffffffffffff1673ffffffffffffffffffffffffffffffffffffffff16815260200190815260200160002060003373ffffffffffffffffffffffffffffffffffffffff1673ffffffffffffffffffffffffffffffffffffffff1681526020019081526020016000205461189b90919063ffffffff16565b611924565b600190509392505050565b6000600560009054906101000a900460ff16905090565b6000610f9d3384610f9885600160003373ffffffffffffffffffffffffffffffffffffffff1673ffffffffffffffffffffffffffffffffffffffff16815260200190815260200160002060008973ffffffffffffffffffffffffffffffffffffffff1673ffffffffffffffffffffffffffffffffffffffff16815260200190815260200160002054611b1b90919063ffffffff16565b611924565b6001905092915050565b600654421161101e576040517f08c379a00000000000000000000000000000000000000000000000000000000081526004018080602001828103825260208152602001807f4f7074696f6e20636f6e747261637420686173206e6f7420657870697265642e81525060200191505060405180910390fd5b60003073ffffffffffffffffffffffffffffffffffffffff1631905060007389d24a6b4ccb1b6faa2625fe562bdd9a2326035973ffffffffffffffffffffffffffffffffffffffff166370a08231306040518263ffffffff1660e01b8152600401808273ffffffffffffffffffffffffffffffffffffffff1673ffffffffffffffffffffffffffffffffffffffff16815260200191505060206040518083038186803b1580156110cd57600080fd5b505afa1580156110e1573d6000803e3d6000fd5b505050506040513d60208110156110f757600080fd5b8101908080519060200190929190505050905060008214801561111a5750600081145b15611138573373ffffffffffffffffffffffffffffffffffffffff16ff5b5050565b60006006544211156111b6576040517f08c379a000000000000000000000000000000000000000000000000000000000815260040180806020018281038252601c8152602001807f4f7074696f6e20636f6e74726163742068617320657870697265642e0000000081525060200191505060405180910390fd5b3373ffffffffffffffffffffffffffffffffffffffff168373ffffffffffffffffffffffffffffffffffffffff161461126957816111f484336116b6565b1015611268576040517f08c379a00000000000000000000000000000000000000000000000000000000081526004018080602001828103825260158152602001807f556e617574686f72697a6564206578657263697365000000000000000000000081525060200191505060405180910390fd5b5b8161127384611510565b10156112e7576040517f08c379a000000000000000000000000000000000000000000000000000000000815260040180806020018281038252601e8152602001807f4e6f7420656e6f756768206f7074696f6e20746f6b656e73206f776e6564000081525060200191505060405180910390fd5b6112f18383611ffa565b7389d24a6b4ccb1b6faa2625fe562bdd9a2326035973ffffffffffffffffffffffffffffffffffffffff166323b872dd843060075486026040518463ffffffff1660e01b8152600401808473ffffffffffffffffffffffffffffffffffffffff1673ffffffffffffffffffffffffffffffffffffffff1681526020018373ffffffffffffffffffffffffffffffffffffffff1673ffffffffffffffffffffffffffffffffffffffff1681526020018281526020019350505050602060405180830381600087803b1580156113c457600080fd5b505af11580156113d8573d6000803e3d6000fd5b505050506040513d60208110156113ee57600080fd5b8101908080519060200190929190505050611471576040517f08c379a00000000000000000000000000000000000000000000000000000000081526004018080602001828103825260198152602001807f444149207472616e7366657220756e7375636365737366756c0000000000000081525060200191505060405180910390fd5b8273ffffffffffffffffffffffffffffffffffffffff166108fc839081150290604051600060405180830381858888f193505050501580156114b7573d6000803e3d6000fd5b508273ffffffffffffffffffffffffffffffffffffffff167f8ddc97895f60c450c0b09eaeadbc42f8973b77f9540fe465b91939670ee4807b836040518082815260200191505060405180910390a26001905092915050565b60008060008373ffffffffffffffffffffffffffffffffffffffff1673ffffffffffffffffffffffffffffffffffffffff168152602001908152602001600020549050919050565b606060048054600181600116156101000203166002900480601f0160208091040260200160405190810160405280929190818152602001828054600181600116156101000203166002900480156115f05780601f106115c5576101008083540402835291602001916115f0565b820191906000526020600020905b8154815290600101906020018083116115d357829003601f168201915b5050505050905090565b6000611695338461169085600160003373ffffffffffffffffffffffffffffffffffffffff1673ffffffffffffffffffffffffffffffffffffffff16815260200190815260200160002060008973ffffffffffffffffffffffffffffffffffffffff1673ffffffffffffffffffffffffffffffffffffffff1681526020019081526020016000205461189b90919063ffffffff16565b611924565b6001905092915050565b60006116ac338484611d5e565b6001905092915050565b6000600160008473ffffffffffffffffffffffffffffffffffffffff1673ffffffffffffffffffffffffffffffffffffffff16815260200190815260200160002060008373ffffffffffffffffffffffffffffffffffffffff1673ffffffffffffffffffffffffffffffffffffffff16815260200190815260200160002054905092915050565b6000600860008373ffffffffffffffffffffffffffffffffffffffff1673ffffffffffffffffffffffffffffffffffffffff168152602001908152602001600020549050919050565b6000808314156117995760009050611806565b60008284029050828482816117aa57fe5b0414611801576040517f08c379a00000000000000000000000000000000000000000000000000000000081526004018080602001828103825260218152602001806121de6021913960400191505060405180910390fd5b809150505b92915050565b6000808211611883576040517f08c379a000000000000000000000000000000000000000000000000000000000815260040180806020018281038252601a8152602001807f536166654d6174683a206469766973696f6e206279207a65726f00000000000081525060200191505060405180910390fd5b600082848161188e57fe5b0490508091505092915050565b600082821115611913576040517f08c379a000000000000000000000000000000000000000000000000000000000815260040180806020018281038252601e8152602001807f536166654d6174683a207375627472616374696f6e206f766572666c6f77000081525060200191505060405180910390fd5b600082840390508091505092915050565b600073ffffffffffffffffffffffffffffffffffffffff168373ffffffffffffffffffffffffffffffffffffffff1614156119aa576040517f08c379a00000000000000000000000000000000000000000000000000000000081526004018080602001828103825260248152602001806122456024913960400191505060405180910390fd5b600073ffffffffffffffffffffffffffffffffffffffff168273ffffffffffffffffffffffffffffffffffffffff161415611a30576040517f08c379a00000000000000000000000000000000000000000000000000000000081526004018080602001828103825260228152602001806121bc6022913960400191505060405180910390fd5b80600160008573ffffffffffffffffffffffffffffffffffffffff1673ffffffffffffffffffffffffffffffffffffffff16815260200190815260200160002060008473ffffffffffffffffffffffffffffffffffffffff1673ffffffffffffffffffffffffffffffffffffffff168152602001908152602001600020819055508173ffffffffffffffffffffffffffffffffffffffff168373ffffffffffffffffffffffffffffffffffffffff167f8c5be1e5ebec7d5bd14f71427d1e84f3dd0314c0f7b2291e5b200ac8c7c3b925836040518082815260200191505060405180910390a3505050565b600080828401905083811015611b99576040517f08c379a000000000000000000000000000000000000000000000000000000000815260040180806020018281038252601b8152602001807f536166654d6174683a206164646974696f6e206f766572666c6f77000000000081525060200191505060405180910390fd5b8091505092915050565b600073ffffffffffffffffffffffffffffffffffffffff168273ffffffffffffffffffffffffffffffffffffffff161415611c46576040517f08c379a000000000000000000000000000000000000000000000000000000000815260040180806020018281038252601f8152602001807f45524332303a206d696e7420746f20746865207a65726f20616464726573730081525060200191505060405180910390fd5b611c5b81600254611b1b90919063ffffffff16565b600281905550611cb2816000808573ffffffffffffffffffffffffffffffffffffffff1673ffffffffffffffffffffffffffffffffffffffff16815260200190815260200160002054611b1b90919063ffffffff16565b6000808473ffffffffffffffffffffffffffffffffffffffff1673ffffffffffffffffffffffffffffffffffffffff168152602001908152602001600020819055508173ffffffffffffffffffffffffffffffffffffffff16600073ffffffffffffffffffffffffffffffffffffffff167fddf252ad1be2c89b69c2b068fc378daa952ba7f163c4a11628f55a4df523b3ef836040518082815260200191505060405180910390a35050565b600073ffffffffffffffffffffffffffffffffffffffff168373ffffffffffffffffffffffffffffffffffffffff161415611de4576040517f08c379a00000000000000000000000000000000000000000000000000000000081526004018080602001828103825260258152602001806122206025913960400191505060405180910390fd5b600073ffffffffffffffffffffffffffffffffffffffff168273ffffffffffffffffffffffffffffffffffffffff161415611e6a576040517f08c379a00000000000000000000000000000000000000000000000000000000081526004018080602001828103825260238152602001806121996023913960400191505060405180910390fd5b611ebb816000808673ffffffffffffffffffffffffffffffffffffffff1673ffffffffffffffffffffffffffffffffffffffff1681526020019081526020016000205461189b90919063ffffffff16565b6000808573ffffffffffffffffffffffffffffffffffffffff1673ffffffffffffffffffffffffffffffffffffffff16815260200190815260200160002081905550611f4e816000808573ffffffffffffffffffffffffffffffffffffffff1673ffffffffffffffffffffffffffffffffffffffff16815260200190815260200160002054611b1b90919063ffffffff16565b6000808473ffffffffffffffffffffffffffffffffffffffff1673ffffffffffffffffffffffffffffffffffffffff168152602001908152602001600020819055508173ffffffffffffffffffffffffffffffffffffffff168373ffffffffffffffffffffffffffffffffffffffff167fddf252ad1be2c89b69c2b068fc378daa952ba7f163c4a11628f55a4df523b3ef836040518082815260200191505060405180910390a3505050565b600073ffffffffffffffffffffffffffffffffffffffff168273ffffffffffffffffffffffffffffffffffffffff161415612080576040517f08c379a00000000000000000000000000000000000000000000000000000000081526004018080602001828103825260218152602001806121ff6021913960400191505060405180910390fd5b6120958160025461189b90919063ffffffff16565b6002819055506120ec816000808573ffffffffffffffffffffffffffffffffffffffff1673ffffffffffffffffffffffffffffffffffffffff1681526020019081526020016000205461189b90919063ffffffff16565b6000808473ffffffffffffffffffffffffffffffffffffffff1673ffffffffffffffffffffffffffffffffffffffff16815260200190815260200160002081905550600073ffffffffffffffffffffffffffffffffffffffff168273ffffffffffffffffffffffffffffffffffffffff167fddf252ad1be2c89b69c2b068fc378daa952ba7f163c4a11628f55a4df523b3ef836040518082815260200191505060405180910390a3505056fe45524332303a207472616e7366657220746f20746865207a65726f206164647265737345524332303a20617070726f766520746f20746865207a65726f2061646472657373536166654d6174683a206d756c7469706c69636174696f6e206f766572666c6f7745524332303a206275726e2066726f6d20746865207a65726f206164647265737345524332303a207472616e736665722066726f6d20746865207a65726f206164647265737345524332303a20617070726f76652066726f6d20746865207a65726f2061646472657373a165627a7a72305820ff9842c60657648ed3801f44c42a11f8fc38606a2a9f75091b25b06fa97faf3e00296080604052604051620026b0380380620026b0833981018060405260808110156200002957600080fd5b81019080805190602001909291908051906020019092919080516401000000008111156200005657600080fd5b828101905060208101848111156200006d57600080fd5b81518560018202830111640100000000821117156200008b57600080fd5b50509291906020018051640100000000811115620000a857600080fd5b82810190506020810184811115620000bf57600080fd5b8151856001820283011164010000000082111715620000dd57600080fd5b50509291905050508181601282600390805190602001906200010192919062000151565b5081600490805190602001906200011a92919062000151565b5080600560006101000a81548160ff021916908360ff16021790555050505083600681905550826007819055505050505062000200565b828054600181600116156101000203166002900490600052602060002090601f016020900481019282601f106200019457805160ff1916838001178555620001c5565b82800160010185558215620001c5579182015b82811115620001c4578251825591602001919060010190620001a7565b5b509050620001d49190620001d8565b5090565b620001fd91905b80821115620001f9576000816000905550600101620001df565b5090565b90565b6124a080620002106000396000f3fe6080604052600436106100f35760003560e01c806367842b821161008a578063a457c2d711610059578063a457c2d714610551578063a9059cbb146105c4578063dd62ed3e14610637578063e2dc4310146106bc576100f3565b806367842b82146103a357806370a0823114610409578063882714f41461046e57806395d89b41146104c1576100f3565b806323b872dd116100c657806323b872dd14610255578063313ce567146102e857806339509351146103195780635a58cd4c1461038c576100f3565b80630114a690146100f857806306fdde0314610127578063095ea7b3146101b757806318160ddd1461022a575b600080fd5b34801561010457600080fd5b5061010d610721565b604051808215151515815260200191505060405180910390f35b34801561013357600080fd5b5061013c610bf2565b6040518080602001828103825283818151815260200191508051906020019080838360005b8381101561017c578082015181840152602081019050610161565b50505050905090810190601f1680156101a95780820380516001836020036101000a031916815260200191505b509250505060405180910390f35b3480156101c357600080fd5b50610210600480360360408110156101da57600080fd5b81019080803573ffffffffffffffffffffffffffffffffffffffff16906020019092919080359060200190929190505050610c94565b604051808215151515815260200191505060405180910390f35b34801561023657600080fd5b5061023f610cab565b6040518082815260200191505060405180910390f35b34801561026157600080fd5b506102ce6004803603606081101561027857600080fd5b81019080803573ffffffffffffffffffffffffffffffffffffffff169060200190929190803573ffffffffffffffffffffffffffffffffffffffff16906020019092919080359060200190929190505050610cb5565b604051808215151515815260200191505060405180910390f35b3480156102f457600080fd5b506102fd610d66565b604051808260ff1660ff16815260200191505060405180910390f35b34801561032557600080fd5b506103726004803603604081101561033c57600080fd5b81019080803573ffffffffffffffffffffffffffffffffffffffff16906020019092919080359060200190929190505050610d7d565b604051808215151515815260200191505060405180910390f35b34801561039857600080fd5b506103a1610e22565b005b6103ef600480360360408110156103b957600080fd5b81019080803573ffffffffffffffffffffffffffffffffffffffff16906020019092919080359060200190929190505050610fb7565b604051808215151515815260200191505060405180910390f35b34801561041557600080fd5b506104586004803603602081101561042c57600080fd5b81019080803573ffffffffffffffffffffffffffffffffffffffff1690602001909291905050506113d0565b6040518082815260200191505060405180910390f35b34801561047a57600080fd5b506104a76004803603602081101561049157600080fd5b8101908080359060200190929190505050611418565b604051808215151515815260200191505060405180910390f35b3480156104cd57600080fd5b506104d661173c565b6040518080602001828103825283818151815260200191508051906020019080838360005b838110156105165780820151818401526020810190506104fb565b50505050905090810190601f1680156105435780820380516001836020036101000a031916815260200191505b509250505060405180910390f35b34801561055d57600080fd5b506105aa6004803603604081101561057457600080fd5b81019080803573ffffffffffffffffffffffffffffffffffffffff169060200190929190803590602001909291905050506117de565b604051808215151515815260200191505060405180910390f35b3480156105d057600080fd5b5061061d600480360360408110156105e757600080fd5b81019080803573ffffffffffffffffffffffffffffffffffffffff16906020019092919080359060200190929190505050611883565b604051808215151515815260200191505060405180910390f35b34801561064357600080fd5b506106a66004803603604081101561065a57600080fd5b81019080803573ffffffffffffffffffffffffffffffffffffffff169060200190929190803573ffffffffffffffffffffffffffffffffffffffff16906020019092919050505061189a565b6040518082815260200191505060405180910390f35b3480156106c857600080fd5b5061070b600480360360208110156106df57600080fd5b81019080803573ffffffffffffffffffffffffffffffffffffffff169060200190929190505050611921565b6040518082815260200191505060405180910390f35b6000600654421161079a576040517f08c379a00000000000000000000000000000000000000000000000000000000081526004018080602001828103825260208152602001807f4f7074696f6e20636f6e747261637420686173206e6f7420657870697265642e81525060200191505060405180910390fd5b6000600860003373ffffffffffffffffffffffffffffffffffffffff1673ffffffffffffffffffffffffffffffffffffffff168152602001908152602001600020541161084f576040517f08c379a00000000000000000000000000000000000000000000000000000000081526004018080602001828103825260158152602001807f4e6f20636f6e747269627574696f6e20666f756e64000000000000000000000081525060200191505060405180910390fd5b60003073ffffffffffffffffffffffffffffffffffffffff1631905060006108bf600860003373ffffffffffffffffffffffffffffffffffffffff1673ffffffffffffffffffffffffffffffffffffffff168152602001908152602001600020548361196a90919063ffffffff16565b905060006108d8600954836119f090919063ffffffff16565b905060007389d24a6b4ccb1b6faa2625fe562bdd9a2326035973ffffffffffffffffffffffffffffffffffffffff166370a08231306040518263ffffffff1660e01b8152600401808273ffffffffffffffffffffffffffffffffffffffff1673ffffffffffffffffffffffffffffffffffffffff16815260200191505060206040518083038186803b15801561096d57600080fd5b505afa158015610981573d6000803e3d6000fd5b505050506040513d602081101561099757600080fd5b8101908080519060200190929190505050905060006109fe600860003373ffffffffffffffffffffffffffffffffffffffff1673ffffffffffffffffffffffffffffffffffffffff168152602001908152602001600020548361196a90919063ffffffff16565b90506000610a17600954836119f090919063ffffffff16565b9050610a6d600860003373ffffffffffffffffffffffffffffffffffffffff1673ffffffffffffffffffffffffffffffffffffffff16815260200190815260200160002054600954611a7f90919063ffffffff16565b506000600860003373ffffffffffffffffffffffffffffffffffffffff1673ffffffffffffffffffffffffffffffffffffffff168152602001908152602001600020819055506000811115610b94577389d24a6b4ccb1b6faa2625fe562bdd9a2326035973ffffffffffffffffffffffffffffffffffffffff1663a9059cbb33836040518363ffffffff1660e01b8152600401808373ffffffffffffffffffffffffffffffffffffffff1673ffffffffffffffffffffffffffffffffffffffff16815260200182815260200192505050602060405180830381600087803b158015610b5757600080fd5b505af1158015610b6b573d6000803e3d6000fd5b505050506040513d6020811015610b8157600080fd5b8101908080519060200190929190505050505b6000841115610be5573373ffffffffffffffffffffffffffffffffffffffff166108fc859081150290604051600060405180830381858888f19350505050158015610be3573d6000803e3d6000fd5b505b6001965050505050505090565b606060038054600181600116156101000203166002900480601f016020809104026020016040519081016040528092919081815260200182805460018160011615610100020316600290048015610c8a5780601f10610c5f57610100808354040283529160200191610c8a565b820191906000526020600020905b815481529060010190602001808311610c6d57829003601f168201915b5050505050905090565b6000610ca1338484611b08565b6001905092915050565b6000600254905090565b6000610cc2848484611cff565b610d5b8433610d5685600160008a73ffffffffffffffffffffffffffffffffffffffff1673ffffffffffffffffffffffffffffffffffffffff16815260200190815260200160002060003373ffffffffffffffffffffffffffffffffffffffff1673ffffffffffffffffffffffffffffffffffffffff16815260200190815260200160002054611a7f90919063ffffffff16565b611b08565b600190509392505050565b6000600560009054906101000a900460ff16905090565b6000610e183384610e1385600160003373ffffffffffffffffffffffffffffffffffffffff1673ffffffffffffffffffffffffffffffffffffffff16815260200190815260200160002060008973ffffffffffffffffffffffffffffffffffffffff1673ffffffffffffffffffffffffffffffffffffffff16815260200190815260200160002054611f9b90919063ffffffff16565b611b08565b6001905092915050565b6006544211610e99576040517f08c379a00000000000000000000000000000000000000000000000000000000081526004018080602001828103825260208152602001807f4f7074696f6e20636f6e747261637420686173206e6f7420657870697265642e81525060200191505060405180910390fd5b60003073ffffffffffffffffffffffffffffffffffffffff1631905060007389d24a6b4ccb1b6faa2625fe562bdd9a2326035973ffffffffffffffffffffffffffffffffffffffff166370a08231306040518263ffffffff1660e01b8152600401808273ffffffffffffffffffffffffffffffffffffffff1673ffffffffffffffffffffffffffffffffffffffff16815260200191505060206040518083038186803b158015610f4857600080fd5b505afa158015610f5c573d6000803e3d6000fd5b505050506040513d6020811015610f7257600080fd5b81019080805190602001909291905050509050600082148015610f955750600081145b15610fb3573373ffffffffffffffffffffffffffffffffffffffff16ff5b5050565b6000600654421115611031576040517f08c379a000000000000000000000000000000000000000000000000000000000815260040180806020018281038252601c8152602001807f4f7074696f6e20636f6e74726163742068617320657870697265642e0000000081525060200191505060405180910390fd5b3373ffffffffffffffffffffffffffffffffffffffff168373ffffffffffffffffffffffffffffffffffffffff16146110e4578161106f843361189a565b10156110e3576040517f08c379a00000000000000000000000000000000000000000000000000000000081526004018080602001828103825260158152602001807f556e617574686f72697a6564206578657263697365000000000000000000000081525060200191505060405180910390fd5b5b8134101561115a576040517f08c379a00000000000000000000000000000000000000000000000000000000081526004018080602001828103825260188152602001807f4e6f74204554482073656e7420746f206578657263697365000000000000000081525060200191505060405180910390fd5b81611164846113d0565b10156111d8576040517f08c379a000000000000000000000000000000000000000000000000000000000815260040180806020018281038252601e8152602001807f4e6f7420656e6f756768206f7074696f6e20746f6b656e73206f776e6564000081525060200191505060405180910390fd5b6111e28383612023565b60006111f96007548461196a90919063ffffffff16565b90507389d24a6b4ccb1b6faa2625fe562bdd9a2326035973ffffffffffffffffffffffffffffffffffffffff166323b872dd3086846040518463ffffffff1660e01b8152600401808473ffffffffffffffffffffffffffffffffffffffff1673ffffffffffffffffffffffffffffffffffffffff1681526020018373ffffffffffffffffffffffffffffffffffffffff1673ffffffffffffffffffffffffffffffffffffffff1681526020018281526020019350505050602060405180830381600087803b1580156112ca57600080fd5b505af11580156112de573d6000803e3d6000fd5b505050506040513d60208110156112f457600080fd5b8101908080519060200190929190505050611377576040517f08c379a00000000000000000000000000000000000000000000000000000000081526004018080602001828103825260198152602001807f444149207472616e7366657220756e7375636365737366756c0000000000000081525060200191505060405180910390fd5b8373ffffffffffffffffffffffffffffffffffffffff167f8ddc97895f60c450c0b09eaeadbc42f8973b77f9540fe465b91939670ee4807b846040518082815260200191505060405180910390a2600191505092915050565b60008060008373ffffffffffffffffffffffffffffffffffffffff1673ffffffffffffffffffffffffffffffffffffffff168152602001908152602001600020549050919050565b6000600654421115611492576040517f08c379a000000000000000000000000000000000000000000000000000000000815260040180806020018281038252601c8152602001807f4f7074696f6e20636f6e74726163742068617320657870697265642e0000000081525060200191505060405180910390fd5b600082116114eb576040517f08c379a00000000000000000000000000000000000000000000000000000000081526004018080602001828103825260288152602001806123c26028913960400191505060405180910390fd5b81600860003373ffffffffffffffffffffffffffffffffffffffff1673ffffffffffffffffffffffffffffffffffffffff1681526020019081526020016000208190555061154482600954611f9b90919063ffffffff16565b5061154f33836121c1565b60006115666007548461196a90919063ffffffff16565b90507389d24a6b4ccb1b6faa2625fe562bdd9a2326035973ffffffffffffffffffffffffffffffffffffffff166323b872dd3330846040518463ffffffff1660e01b8152600401808473ffffffffffffffffffffffffffffffffffffffff1673ffffffffffffffffffffffffffffffffffffffff1681526020018373ffffffffffffffffffffffffffffffffffffffff1673ffffffffffffffffffffffffffffffffffffffff1681526020018281526020019350505050602060405180830381600087803b15801561163757600080fd5b505af115801561164b573d6000803e3d6000fd5b505050506040513d602081101561166157600080fd5b81019080805190602001909291905050506116e4576040517f08c379a00000000000000000000000000000000000000000000000000000000081526004018080602001828103825260198152602001807f444149207472616e7366657220756e7375636365737366756c0000000000000081525060200191505060405180910390fd5b3373ffffffffffffffffffffffffffffffffffffffff167fecfcecf9c6cf434c1f909baa2a7d4ed561b2612dc9520fcc0e17934e13430557846040518082815260200191505060405180910390a26001915050919050565b606060048054600181600116156101000203166002900480601f0160208091040260200160405190810160405280929190818152602001828054600181600116156101000203166002900480156117d45780601f106117a9576101008083540402835291602001916117d4565b820191906000526020600020905b8154815290600101906020018083116117b757829003601f168201915b5050505050905090565b6000611879338461187485600160003373ffffffffffffffffffffffffffffffffffffffff1673ffffffffffffffffffffffffffffffffffffffff16815260200190815260200160002060008973ffffffffffffffffffffffffffffffffffffffff1673ffffffffffffffffffffffffffffffffffffffff16815260200190815260200160002054611a7f90919063ffffffff16565b611b08565b6001905092915050565b6000611890338484611cff565b6001905092915050565b6000600160008473ffffffffffffffffffffffffffffffffffffffff1673ffffffffffffffffffffffffffffffffffffffff16815260200190815260200160002060008373ffffffffffffffffffffffffffffffffffffffff1673ffffffffffffffffffffffffffffffffffffffff16815260200190815260200160002054905092915050565b6000600860008373ffffffffffffffffffffffffffffffffffffffff1673ffffffffffffffffffffffffffffffffffffffff168152602001908152602001600020549050919050565b60008083141561197d57600090506119ea565b600082840290508284828161198e57fe5b04146119e5576040517f08c379a00000000000000000000000000000000000000000000000000000000081526004018080602001828103825260218152602001806123ea6021913960400191505060405180910390fd5b809150505b92915050565b6000808211611a67576040517f08c379a000000000000000000000000000000000000000000000000000000000815260040180806020018281038252601a8152602001807f536166654d6174683a206469766973696f6e206279207a65726f00000000000081525060200191505060405180910390fd5b6000828481611a7257fe5b0490508091505092915050565b600082821115611af7576040517f08c379a000000000000000000000000000000000000000000000000000000000815260040180806020018281038252601e8152602001807f536166654d6174683a207375627472616374696f6e206f766572666c6f77000081525060200191505060405180910390fd5b600082840390508091505092915050565b600073ffffffffffffffffffffffffffffffffffffffff168373ffffffffffffffffffffffffffffffffffffffff161415611b8e576040517f08c379a00000000000000000000000000000000000000000000000000000000081526004018080602001828103825260248152602001806124516024913960400191505060405180910390fd5b600073ffffffffffffffffffffffffffffffffffffffff168273ffffffffffffffffffffffffffffffffffffffff161415611c14576040517f08c379a00000000000000000000000000000000000000000000000000000000081526004018080602001828103825260228152602001806123a06022913960400191505060405180910390fd5b80600160008573ffffffffffffffffffffffffffffffffffffffff1673ffffffffffffffffffffffffffffffffffffffff16815260200190815260200160002060008473ffffffffffffffffffffffffffffffffffffffff1673ffffffffffffffffffffffffffffffffffffffff168152602001908152602001600020819055508173ffffffffffffffffffffffffffffffffffffffff168373ffffffffffffffffffffffffffffffffffffffff167f8c5be1e5ebec7d5bd14f71427d1e84f3dd0314c0f7b2291e5b200ac8c7c3b925836040518082815260200191505060405180910390a3505050565b600073ffffffffffffffffffffffffffffffffffffffff168373ffffffffffffffffffffffffffffffffffffffff161415611d85576040517f08c379a000000000000000000000000000000000000000000000000000000000815260040180806020018281038252602581526020018061242c6025913960400191505060405180910390fd5b600073ffffffffffffffffffffffffffffffffffffffff168273ffffffffffffffffffffffffffffffffffffffff161415611e0b576040517f08c379a000000000000000000000000000000000000000000000000000000000815260040180806020018281038252602381526020018061237d6023913960400191505060405180910390fd5b611e5c816000808673ffffffffffffffffffffffffffffffffffffffff1673ffffffffffffffffffffffffffffffffffffffff16815260200190815260200160002054611a7f90919063ffffffff16565b6000808573ffffffffffffffffffffffffffffffffffffffff1673ffffffffffffffffffffffffffffffffffffffff16815260200190815260200160002081905550611eef816000808573ffffffffffffffffffffffffffffffffffffffff1673ffffffffffffffffffffffffffffffffffffffff16815260200190815260200160002054611f9b90919063ffffffff16565b6000808473ffffffffffffffffffffffffffffffffffffffff1673ffffffffffffffffffffffffffffffffffffffff168152602001908152602001600020819055508173ffffffffffffffffffffffffffffffffffffffff168373ffffffffffffffffffffffffffffffffffffffff167fddf252ad1be2c89b69c2b068fc378daa952ba7f163c4a11628f55a4df523b3ef836040518082815260200191505060405180910390a3505050565b600080828401905083811015612019576040517f08c379a000000000000000000000000000000000000000000000000000000000815260040180806020018281038252601b8152602001807f536166654d6174683a206164646974696f6e206f766572666c6f77000000000081525060200191505060405180910390fd5b8091505092915050565b600073ffffffffffffffffffffffffffffffffffffffff168273ffffffffffffffffffffffffffffffffffffffff1614156120a9576040517f08c379a000000000000000000000000000000000000000000000000000000000815260040180806020018281038252602181526020018061240b6021913960400191505060405180910390fd5b6120be81600254611a7f90919063ffffffff16565b600281905550612115816000808573ffffffffffffffffffffffffffffffffffffffff1673ffffffffffffffffffffffffffffffffffffffff16815260200190815260200160002054611a7f90919063ffffffff16565b6000808473ffffffffffffffffffffffffffffffffffffffff1673ffffffffffffffffffffffffffffffffffffffff16815260200190815260200160002081905550600073ffffffffffffffffffffffffffffffffffffffff168273ffffffffffffffffffffffffffffffffffffffff167fddf252ad1be2c89b69c2b068fc378daa952ba7f163c4a11628f55a4df523b3ef836040518082815260200191505060405180910390a35050565b600073ffffffffffffffffffffffffffffffffffffffff168273ffffffffffffffffffffffffffffffffffffffff161415612264576040517f08c379a000000000000000000000000000000000000000000000000000000000815260040180806020018281038252601f8152602001807f45524332303a206d696e7420746f20746865207a65726f20616464726573730081525060200191505060405180910390fd5b61227981600254611f9b90919063ffffffff16565b6002819055506122d0816000808573ffffffffffffffffffffffffffffffffffffffff1673ffffffffffffffffffffffffffffffffffffffff16815260200190815260200160002054611f9b90919063ffffffff16565b6000808473ffffffffffffffffffffffffffffffffffffffff1673ffffffffffffffffffffffffffffffffffffffff168152602001908152602001600020819055508173ffffffffffffffffffffffffffffffffffffffff16600073ffffffffffffffffffffffffffffffffffffffff167fddf252ad1be2c89b69c2b068fc378daa952ba7f163c4a11628f55a4df523b3ef836040518082815260200191505060405180910390a3505056fe45524332303a207472616e7366657220746f20746865207a65726f206164647265737345524332303a20617070726f766520746f20746865207a65726f20616464726573734d75737420777269746520707574206f7074696f6e20666f72206174206c65617374203120776569536166654d6174683a206d756c7469706c69636174696f6e206f766572666c6f7745524332303a206275726e2066726f6d20746865207a65726f206164647265737345524332303a207472616e736665722066726f6d20746865207a65726f206164647265737345524332303a20617070726f76652066726f6d20746865207a65726f2061646472657373a165627a7a72305820c5a302a01831f3ce48a212d993af6cebd360ff9574dcc22b4e45eb78a71bf2bc0029a165627a7a72305820724b77485ab7890eafdf0ed6dedb0434ee05ee700141516ce5ecd4c5f2c4460c0029",
  "source": "pragma solidity ^0.5.0;\n\nimport \"./ETHCallOption.sol\";\nimport \"./ETHPutOption.sol\";\n\ncontract ETHOptionsFactory {\n    \n    mapping(uint256 => mapping(uint256 => address)) private _call_option_contracts;\n    mapping(uint256 => mapping(uint256 => address)) private _put_option_contracts;\n\n    event CallOptionContractCreated(address indexed contract_address, uint256 expiration_timestamp, uint256 strike);\n    event PutOptionContractCreated(address indexed contract_address, uint256 expiration_timestamp, uint256 strike);\n    \n    function callOptionContract(uint256 expiration_timestamp, uint256 strike) public view returns (address) {\n        return _call_option_contracts[expiration_timestamp][strike];\n    }\n    \n    function putOptionContract(uint256 expiration_timestamp, uint256 strike) public view returns (address) {\n        return _put_option_contracts[expiration_timestamp][strike];\n    }\n    \n    function createCallOptionContract(uint256 expiration_timestamp, uint256 strike) public returns (bool success) {\n        \n        // check valid expiration\n        require(expiration_timestamp >= now, \"Invalid expiration.\");\n        \n        // check the contract was not already created\n        require(_call_option_contracts[expiration_timestamp][strike] == address(0), \"Contract already created.\");\n        \n        // create new call option contract with the given parameters\n        ETHCallOption call_option_contract = new ETHCallOption(expiration_timestamp, strike, \"ETH Call Contract\", \"ETHCall\");\n\n        address call_option_contract_address = address(call_option_contract);\n\n        _call_option_contracts[expiration_timestamp][strike] = call_option_contract_address;\n\n        emit CallOptionContractCreated(call_option_contract_address, expiration_timestamp, strike);\n        \n        return true;\n    }\n    \n    function createPutOptionContract(uint256 expiration_timestamp, uint256 strike) public returns (bool success) {\n\n        // check valid expiration\n        require(expiration_timestamp >= now, \"Invalid expiration.\");\n        \n        // check the contract was not already created\n        require(_put_option_contracts[expiration_timestamp][strike] == address(0), \"Contract already created.\");\n        \n        // create new put option contract with the given parameters\n        ETHPutOption put_option_contract = new ETHPutOption(expiration_timestamp, strike, \"ETH Put Contract\", \"ETHPut\");\n\n        address put_option_contract_address = address(put_option_contract);\n\n        _put_option_contracts[expiration_timestamp][strike] = put_option_contract_address;\n\n        emit PutOptionContractCreated(put_option_contract_address, expiration_timestamp, strike);\n        \n        return true;\n    }\n}",
  "sourcePath": "/Users/square1/Desktop/eth_options/contracts/ETHOptionsFactory.sol",
  "compiler": {
    "name": "solc",
    "version": "0.5.8+commit.23d335f2.Emscripten.clang"
  },
  "schemaVersion": "3.0.11",
  "updatedAt": "2019-07-08T17:30:31.911Z",
  "devdoc": {
    "methods": {}
  },
  "userdoc": {
    "methods": {}
  }
}